:020000040800F2
:1000000000500020251C00082702000829020008D3
:100010002B0200082D0200082F020008000000003B
:100020000000000000000000000000003102000895
:100030003302000800000000350200083702000803
:100040006D1C00086D1C00086D1C00086D1C00086C
:100050006D1C00086D1C00086D1C00086D1C00085C
:100060006D1C00086D1C00086D1C00086D1C00084C
:100070006D1C00086D1C00086D1C00086D1C00083C
:100080006D1C00086D1C00086D1C00086D1C00082C
:100090006D1C00086D1C00086D1C00086D1C00081C
:1000A0006D1C00086D1C00086D1C00086D1C00080C
:1000B0006D1C00086D1C00086D1C00086D1C0008FC
:1000C0006D1C00086D1C00086D1C00086D1C0008EC
:1000D0006D1C0008410200086D1C00086D1C000822
:1000E0006D1C00086D1C00086D1C0008000000005D
:1000F0000000000000000000000000000000000000
:0C01000000000000000000005FF808F1A3
:10010C0010B5054C237833B9044B13B10448AFF345
:10011C0000800123237010BD10000020000000009F
:10012C00B81C000808B5034B1BB103490348AFF3D7
:10013C00008008BD0000000014000020B81C00085E
:10014C0082B00A4B9A6942F020029A619A6902F0D5
:10015C0020020092009A9A6942F004029A619B690B
:10016C0003F004030193019B02B07047001002409E
:10017C0008B50848084B03604FF41653436000233E
:10018C008360C36003610C2242618361C36100F030
:10019C00D5F908BDD00100200038014030B591B030
:1001AC000024089409940B940C94019402940394E5
:1001BC0004940594012306934FF4A02207920A930A
:1001CC0002250D954FF480330E934FF4E0130F93EB
:1001DC0006A800F089FB0F230193029503944FF4BA
:1001EC00806304930594294601A800F0A5FD11B085
:1001FC0030BD08B500F03EFBFFF7D0FFFFF7A0FFC6
:10020C00FFF7B6FF01F014FC01F04EF801F030FCE2
:10021C0001F0E4F801F024FBFCE77047FEE7FEE791
:10022C00FEE7FEE770477047704708B500F034FBF7
:10023C0008BD000008B5024800F05EFA08BD00BF1A
:10024C00D001002082B00E4B9A6942F001029A61F3
:10025C009A6902F001020092009ADA6942F0805227
:10026C00DA61DB6903F080530193019B054A536803
:10027C0023F0E06343F08063536002B0704700BF2B
:10028C00001002400000014030B587B000230293FB
:10029C0003930493059302681B4B9A4201D007B059
:1002AC0030BD03F558439A6942F480429A619A69C9
:1002BC0002F480420092009A9A6942F004029A6118
:1002CC009B6903F004030193019B4FF400730293A9
:1002DC0002230393032305930C4D02A9284600F037
:1002EC001FFE4FF48063029300240394049402A92C
:1002FC00284600F015FE22462146252000F058FF26
:10030C00252000F089FFCAE70038014000080140B1
:10031C000268D36823F49073D3600268536923F0A6
:10032C0001035361202380F83A30704790F839303C
:10033C00DBB2212B01D0022070478368B3F5805FBC
:10034C0016D0036A5A1C02621A7803685A60C38C6E
:10035C00013B9BB2C3844BB90268D36823F0800382
:10036C00D3600268D36843F04003D3600020704729
:10037C00036A1B880268C3F30803536003691BB943
:10038C00036A02330362E2E7036A01330362DEE7C6
:10039C002DE9F84305460268136923F44053C168FC
:1003AC000B43136183680269134342691343016869
:1003BC00CA6822F4B05222F00C021343CB600268DC
:1003CC00536923F4407381690B4353610268594BA1
:1003DC009A4257D000F084FD00EB800000EB8000C7
:1003EC006C68A400B0FBF4F4534FA7FB043464090D
:1003FC00260100F075FD00EB800000EB80006C68BE
:10040C00A400B0FBF4F900F06BFD00EB800000EBF6
:10041C0080006C68A400B0FBF4F4A7FB04346409FE
:10042C004FF0640808FB149424013234A7FB043405
:10043C00640904F0F004344400F052FD00EB800039
:10044C0000EB80006E68B600B0FBF6F600F048FDDD
:10045C0000EB800000EB80006B689B00B0FBF3F0BE
:10046C00A7FB0030400908FB10684FEA081808F198
:10047C003208A7FB0837C7F343172B6827449F6044
:10048C00BDE8F88300F03CFD00EB800000EB800041
:10049C006C68A400B0FBF4F4274FA7FB0434640988
:1004AC00260100F02DFD00EB800000EB80006C6855
:1004BC00A400B0FBF4F900F023FD00EB800000EB8E
:1004CC0080006C68A400B0FBF4F4A7FB043464094E
:1004DC004FF0640808FB149424013234A7FB043455
:1004EC00640904F0F004344400F00AFD00EB8000D1
:1004FC0000EB80006E68B600B0FBF6F600F000FD75
:10050C0000EB800000EB80006B689B00B0FBF3F00D
:10051C00A7FB0030400908FB10684FEA081808F1E7
:10052C003208A7FB0837C7F343172B6827449F6093
:10053C00A6E700BF003801401F85EB5158B310B53A
:10054C00044690F839300BB3242384F839302268F0
:10055C00D36823F40053D3602046FFF719FF2268B9
:10056C00136923F4904313612268536923F02A031F
:10057C0053612268D36843F40053D3600020E063D6
:10058C00202384F8393084F83A3010BD80F83830A4
:10059C00FFF77AFED8E70120704790F83930DBB2CC
:1005AC00202B16D1B9B1C2B190F83830012B16D02E
:1005BC0001628284C2840023C363212280F8392023
:1005CC0080F838300168CA6842F08002CA60184668
:1005DC0070470220704701207047012070470220AD
:1005EC00704790F83A30DBB2202B20D109B312B30C
:1005FC0090F83830012B20D081628285C28500238F
:10060C00C363222280F83A2080F838300168CA6827
:10061C0042F48072CA6001684A6942F001024A6180
:10062C000168CA6842F02002CA601846704702206E
:10063C00704701207047012070470220704708B5B1
:10064C000168CB6823F04003CB60202380F839305D
:10065C0001F0ACFA002008BD08B590F83A30DBB2D6
:10066C00222B45D18368B3F5805F0ED0036903BBA1
:10067C0003685A68836A591C81621A70C38D013BE6
:10068C009BB2C385F3B1002008BD826A036943B9EC
:10069C0003685B68C3F308031380836A02338362C5
:1006AC00ECE703685B68DBB21380836A0133836217
:1006BC00E4E703685B68826A511C816203F07F0384
:1006CC001370DBE70268D36823F02003D360026861
:1006DC00D36823F48073D3600268536923F0010359
:1006EC005361202380F83A3001F038FA0020CBE730
:1006FC000220C9E77047000010B504460268136871
:10070C00D168526913F00F0005D113F0200F02D0FD
:10071C0011F0200F13D128B112F0010213D111F4F2
:10072C00907F10D113F0800F02D011F0800F69D19F
:10073C0013F0400F02D011F0400F67D110BD2046CE
:10074C00FFF78AFFFAE713F0010F06D011F4807F50
:10075C0003D0E06B40F00100E06313F0040F04D011
:10076C001AB1E06B40F00200E06313F0020F04D00A
:10077C001AB1E06B40F00400E06313F0080F04D0F2
:10078C001AB1E26B42F00802E263E26B002AD5D0A8
:10079C0013F0200F02D011F0200F21D123685B69D8
:1007AC0003F04003E26B12F0080F00D123B3204694
:1007BC00FFF7AEFD23685A6912F0400F18D05A6942
:1007CC0022F040025A61636B73B1124A5A63606B38
:1007DC0000F090FC0028B1D0606B436B9847ADE7FC
:1007EC002046FFF739FFD9E72046FFF783FFA5E73F
:1007FC002046FFF77FFFA1E72046FFF77BFF002392
:10080C00E3639BE72046FFF791FD97E72046FFF750
:10081C0016FF93E72508000808B5406A0023C38536
:10082C00C384FFF767FF08BD10B504460E4B18785C
:10083C004FF47A73B3FBF0F30C4A1068B0FBF3F08F
:10084C0000F0F6FC68B90F2C01D901200AE0002257
:10085C0021464FF0FF3000F0ABFC054B1C60002034
:10086C0000E0012010BD00BF0000002008000020A7
:10087C000400002008B5074A136843F01003136006
:10088C00032000F083FC0020FFF7CEFFFFF7DAFC1B
:10089C00002008BD00200240034A1168034B1B785E
:1008AC000B441360704700BF1002002000000020B2
:1008BC00014B1868704700BF1002002082B0084B33
:1008CC001B68084AA2FB03235B0A00FB03F00190A0
:1008DC0000BF019B5A1E0192002BF9D102B0704748
:1008EC0008000020D34D621070B582B00446036836
:1008FC0013F0010F2CD0AB4B5B6803F00C03042BF3
:10090C001DD0A84B5B6803F00C03082B12D0636856
:10091C00B3F5803F41D0002B55D103F1804303F553
:10092C0004331A6822F480321A601A6822F4802286
:10093C001A6037E09B4B5B6813F4803FE7D0994B10
:10094C001B6813F4003F03D06368002B00F0AE81EA
:10095C00236813F0020F75D0924B5B6813F00C0FE9
:10096C005FD0904B5B6803F00C03082B54D02369C9
:10097C00002B00F089808C4B01221A60FFF798FF46
:10098C000546884B1B6813F0020F74D1FFF790FFDC
:10099C00401B0228F5D903208DE1824A136843F4E9
:1009AC0080331360636843B3FFF782FF05467D4BCA
:1009BC001B6813F4003FCBD1FFF77AFF401B642870
:1009CC00F5D9032077E1B3F5A02F09D0754B1A6840
:1009DC0022F480321A601A6822F480221A60E1E74D
:1009EC0003F18043A3F53C331A6842F480221A6069
:1009FC001A6842F480321A60D4E7FFF759FF0546B3
:100A0C00684B1B6813F4003FA2D0FFF751FF401B4B
:100A1C006428F5D903204EE1624B5B6813F4803FE8
:100A2C00A5D1604B1B6813F0020F03D02369012B77
:100A3C0040F03E815B4A136823F0F803616943EA96
:100A4C00C1031360236813F0080F32D0A369002B85
:100A5C005BD0564B01221A60FFF72AFF0546514B1B
:100A6C005B6A13F0020F21D1FFF722FF401B022813
:100A7C00F5D903201FE14B4A136823F0F803616991
:100A8C0043EAC1031360DDE7474B00221A60FFF70E
:100A9C000FFF0546434B1B6813F0020FD2D0FFF734
:100AAC0007FF401B0228F5D9032004E10120FFF7C2
:100ABC0005FF236813F0040F00F09880394BDB69B5
:100ACC0013F0805F33D1374BDA6942F08052DA6130
:100ADC00DB6903F080530193019B0125344B1B68A8
:100AEC0013F4807F25D0E368012B36D0002B4CD13A
:100AFC0003F1804303F504331A6A22F001021A62EF
:100B0C001A6A22F004021A622CE0284B00221A60A6
:100B1C00FFF7CEFE0546234B5B6A13F0020FC8D0DD
:100B2C00FFF7C6FE401B0228F5D90320C3E00025C1
:100B3C00D4E71F4A136843F480731360FFF7B8FEC1
:100B4C0006461B4B1B6813F4807FCCD1FFF7B0FE1D
:100B5C00801B6428F5D90320ADE0124A136A43F0D8
:100B6C0001031362E3687BB3FFF7A2FE06460D4B4D
:100B7C001B6A13F0020F38D1FFF79AFE801B41F26B
:100B8C0088339842F3D9032095E0052B12D0054BFE
:100B9C001A6A22F001021A621A6A22F004021A621C
:100BAC00E0E700BF001002400000424280044242D5
:100BBC0000700040424B1A6A42F004021A621A6A30
:100BCC0042F001021A62CDE7FFF772FE06463C4B7B
:100BDC001B6A13F0020F08D0FFF76AFE801B41F26C
:100BEC0088339842F3D9032065E0E5B9E369002B1B
:100BFC0060D0334A526802F00C02082A5DD0022BF6
:100C0C0017D0304B00221A60FFF752FE04462C4BD3
:100C1C001B6813F0007F47D0FFF74AFE001B022829
:100C2C00F5D9032047E0264AD36923F08053D361DA
:100C3C00DCE7244B00221A60FFF73AFE0546204BF6
:100C4C001B6813F0007F06D0FFF732FE401B022812
:100C5C00F5D903202FE0236AB3F5803F1AD0184949
:100C6C004B6823F47413226A606A024313434B608B
:100C7C00144B01221A60FFF71BFE0446104B1B6835
:100C8C0013F0007F0ED1FFF713FE001B0228F5D9DD
:100C9C00032010E00A4A536823F40033A1680B4385
:100CAC005360DCE7002006E0002004E0012002E0B5
:100CBC00012000E0002002B070BD0120FBE700BF66
:100CCC00001002406000424210B487B0164C94E809
:100CDC000F000DF1180C0CE90F00238AADF804304D
:100CEC00124B5B6803F00C02082A03D0104807B0C3
:100CFC0010BC7047C3F38342624412F8102C13F4F7
:100D0C00803F0CD0094B5B68C3F34043634413F83A
:100D1C00143C074800FB02F0B0FBF3F0E7E7054892
:100D2C0000FB02F0E3E700BFD01C000800100240FB
:100D3C0000127A0000093D00624B1B6803F00703A8
:100D4C008B420BD25F4A136823F007030B431360EB
:100D5C00136803F007038B4240F0AE8070B5036854
:100D6C0013F0020F17D013F0040F04D0564A536837
:100D7C0043F4E0635360036813F0080F04D0524A45
:100D8C00536843F4605353604F4A536823F0F003A5
:100D9C008468234353600D460446036813F0010F27
:100DAC0052D04368012B23D0022B28D0464A12681C
:100DBC0012F0020F00F0828043494A6822F00302CD
:100DCC0013434B60FFF774FD06466368012B1DD07F
:100DDC00022B2AD03C4B5B6813F00C0F34D0FFF77E
:100DEC0067FD801B41F288339842F3D9032062E0FF
:100DFC00354A126812F4003FDED101205BE0324A22
:100E0C00126812F0007FD7D1012054E02E4B5B68A2
:100E1C0003F00C03042B17D0FFF74AFD801B41F2A3
:100E2C0088339842F2D9032045E0274B5B6803F0E6
:100E3C000C03082B08D0FFF73BFD801B41F28833D5
:100E4C009842F2D9032036E01E4B1B6803F00703CF
:100E5C00AB420AD91B4A136823F007032B431360D8
:100E6C00136803F00703AB422AD1236813F0040F75
:100E7C0006D0154A536823F4E063E1680B435360D2
:100E8C00236813F0080F07D00F4A536823F46053FC
:100E9C00216943EAC1035360FFF716FF0A4B5B68F5
:100EAC00C3F30313094AD35CD840094B18600020E4
:100EBC00FFF7BAFC002070BD012070470120FAE753
:100ECC000120F8E70020024000100240E41C00085A
:100EDC0008000020014B1868704700BF0800002074
:100EEC0008B5FFF7F7FF044B5B68C3F30223034A13
:100EFC00D35CD84008BD00BF00100240F41C0008B1
:100F0C0008B5FFF7E7FF044B5B68C3F3C223034A42
:100F1C00D35CD84008BD00BF00100240F41C000890
:100F2C00F0B482B000263546A0E0002B58D0012B3F
:100F3C0010D1CE680EE0694FBB4251D048D9684FF2
:100F4C00BB424DD007F58037BB4249D0A7F580177F
:100F5C00BB4245D0FF2A57D88446FF2A57D8AC004D
:100F6C00DCF800300F27A74023EA070306FA04F445
:100F7C002343CCF800304B6813F0805F75D0594B8D
:100F8C009C6944F001049C619B6903F0010301938B
:100F9C00019BAC08A71C544B53F8273005F00307F2
:100FAC00BF004FF00F0C0CFA07FC23EA0C0C4F4B54
:100FBC00984232D003F58063984270D003F5806379
:100FCC0098426ED003F58063984224D0042325E028
:100FDC00A7F58017BB4203D007F58037BB42B9D1C8
:100FEC008B687BB1012B08D044610826B2E7CE6830
:100FFC000836AFE7CE680C36ACE704610826A9E7E3
:10100C000026A7E70426A5E700F1040CA5E7A5F147
:10101C000804A400A4E7032300E00023BB4043EA38
:10102C000C030234304F47F824304B6813F4803FE4
:10103C0039D02F4C2368134323604B6813F4003FC3
:10104C0037D02B4C6368134363604B6813F4801FD9
:10105C0035D0274CA3681343A3604B6813F4001FCF
:10106C0033D0234CE3681A43E26001350F2D32D89C
:10107C000124AC400A6822409442F6D14B68122BF2
:10108C00B8D03FF658AF022BB1D07FF64EAF032B42
:10109C00B6D0112B7FF45EAFCE6804365AE701232D
:1010AC00BCE70223BAE7124C236823EA020323604D
:1010BC00C3E70F4C636823EA02036360C5E70C4C7B
:1010CC00A36823EA0203A360C7E7094CE36823EA99
:1010DC000202E260C9E702B0F0BC704700002110C8
:1010EC0000003110001002400000014000080140D7
:1010FC000004014008B590F82130022B03D00423E2
:10110C008363012008BD0268136823F00E0313608B
:10111C000268136823F0010313600368194A9342B1
:10112C0014D0143293421FD0143293421ED0143276
:10113C0093421ED0143293421ED01432934202D0EA
:10114C004FF0807203E04FF4801200E001220E4B4E
:10115C005A60012380F82130002380F82030436B43
:10116C006BB198470020CDE71022F0E74FF4807266
:10117C00EDE74FF48052EAE74FF48032E7E70020C6
:10118C00C0E700BF0800024000000240074AD368D5
:10119C0023F4E0631B041B0C000200F4E060184312
:1011AC0040F0BF6040F40030D060704700ED00E0CC
:1011BC0030B4174BDB68C3F30223C3F10704042CD0
:1011CC0028BF04241D1D062D01D9033B00E000237C
:1011DC004FF0FF3505FA04F421EA0401994005FAB1
:1011EC0003F322EA03031943002809DB0901C9B2FE
:1011FC0000F1604000F5614080F8001330BC70478E
:10120C0000F00F000901C9B2024B1954F6E700BFF8
:10121C0000ED00E014ED00E000F01F024009012396
:10122C009340024A42F82030704700BF00E100E0D2
:10123C000138B0F1807F0AD2064B5860064AF02183
:10124C0082F823100020986007221A607047012052
:10125C00704700BF10E000E000ED00E00F4B1A6893
:10126C0042F001021A6059680D4A0A405A601A6825
:10127C0022F0847222F480321A601A6822F48022DE
:10128C001A605A6822F4FE025A604FF41F029A60E8
:10129C00044B4FF000629A60704700BF0010024090
:1012AC000000FFF800ED00E00B4B1B7893B90B4BE3
:1012BC0000225A801A800A4999604FF480719980F3
:1012CC00084B5A801A80084A9A6040229A80024B36
:1012DC0001221A70704700BF80000020840000209B
:1012EC009000002034000020400000202DE9F04147
:1012FC0007460E46254B1C78254A118890684B1CD6
:10130C009BB244549288934203D0214A1380002507
:10131C001AE00023F9E74FF0000C01339BB298451B
:10132C000DD91B4881680CF1010292B214F803E04C
:10133C0001F80CE081888A42EDD09446EDE7144B1D
:10134C00A3F800C00135EDB2B5420AD257F82540DA
:10135C00204600F059FC80460D4BB3F800C000232A
:10136C00DDE70B4A118890684B1C9BB20024445457
:10137C009288934207D0064A1380044B1878421C7B
:10138C001A70BDE8F0812346F5E700BF810000200C
:10139C008400002010B588B02E23ADF808303D2312
:1013AC00ADF804300390B1B10B4602A9049105933A
:1013BC0003214B1C08A800EB810001AC40F8144C35
:1013CC0008A800EB830343F8142C023103A8FFF7A1
:1013DC008DFF08B010BD0121EBE70000114B1B780D
:1013EC00012B00D0704700B583B00F4B1A885A8080
:1013FC000E4B1A885A8000230D4A13700D4A137035
:10140C000D4A92E803000090ADF804100B4A1946FF
:10141C006846FFF7BFFF034B02221A7003B05DF85A
:10142C0004FB00BF8000002034000020840000205A
:10143C002F00002081000020001D0008FC1C00086B
:10144C0070477047704770477047000070B582B0A6
:10145C00864A518896684B1C9BB2715C9588AB424E
:10146C0000F09280814A5380441EE4B2882900F235
:10147C009281DFE811F08B0024018B008B008B0034
:10148C008B009001900190019001900190019001CE
:10149C009001900190019001B0008B00900190019F
:1014AC00900190019001900190018B008B008B00BA
:1014BC0090018B009001B000900190018B00D50041
:1014CC009001900190019001900190019001900188
:1014DC009001900190019001900190019001900178
:1014EC009001900190019001900190019001900168
:1014FC009001900190019001900190019001900158
:10150C009001900190019001900190019001900147
:10151C009001900190019001900190019001900137
:10152C009001900190019001900190019001900127
:10153C009001900190019001900190019001900117
:10154C00480190019001900190019001900190014F
:10155C009001900190018B01A501900190019001E7
:10156C0090019001900190019001900190019001E7
:10157C0090019001900190019001900190019001D7
:10158C00900190019001FF0000236BE7ECB1042166
:10159C00374B1878FFF754FFA2B234490B884988AF
:1015AC005B1A0ED49BB29A4200F2F5800A4492B2B6
:1015BC002E4B9B889A4201D3D21A92B22B4B5A8053
:1015CC00E9E02A4880880344ECE70021284B18788E
:1015DC00FFF736FFDFE0ECB10421254B1878FFF75D
:1015EC002FFFA2B221490B8849885B1A0ED49BB2FB
:1015FC009A4200F2D0800A4492B21C4B9B889A42C9
:10160C0001D3D21A92B2194B5A80C4E01748808881
:10161C000344ECE70121164B1878FFF711FFBAE0F1
:10162C00ECB10421124B1878FFF70AFFA2B20F4954
:10163C000B8849885B1A0ED49BB29A4200F2AB809D
:10164C000A4492B2094B9B889A4201D3D21A92B2A5
:10165C00064B5A809FE0054880880344ECE7022142
:10166C00034B1878FFF7ECFE95E000BF3400002028
:10167C002E000020ECB10421774B1878FFF7E0FE28
:10168C00A2B276490B8849885B1A0ED49BB29A4257
:10169C0000F281800A4492B2704B9B889A4201D32B
:1016AC00D21A92B26D4B5A8075E06C488088034414
:1016BC00ECE70021684B1878FFF7C3FE6BE0E4B150
:1016CC000421654B1878FFF7BBFEA2B263490B8867
:1016DC0049885B1A0DD49BB29A425CD80A4492B2E8
:1016EC005E4B9B889A4201D3D21A92B25B4B5A80C2
:1016FC0051E05A4880880344EDE70121564B187895
:10170C00FFF79FFE47E0032C1DD15A1C92B2F15CEF
:10171C00954235D0514B5A80531C9BB2B25C9D42C2
:10172C0030D04E484380581C80B2F35C85422BD09D
:10173C004A4D6880012B14BF0023012346480078D2
:10174C00FFF780FE27E00421434B1878FFF778FE63
:10175C00A2B242490B8849885B1A0DD49BB29A42BB
:10176C0019D80A4492B23D4B9B889A4201D3D21AA3
:10177C0092B23A4B5A800EE0384880880344EDE729
:10178C000022C7E70023CCE70020D1E72146324BEB
:10179C001878FFF758FE8CB9304A138852889B1A78
:1017AC0055D49BB2022B09D9033292B22B4B9B8896
:1017BC009A4201D3D21A92B2284B5A8002B070BD11
:1017CC00042C01D100221FE00421234B1878FFF7D1
:1017DC0037FEA2B221490B8849885B1A0DD49BB203
:1017EC009A42D8D80A4492B21C4B9B889A4201D395
:1017FC00D21A92B2194B5A80CDE71848808803440C
:10180C00EDE70023013292B2032A0BD81348856806
:10181C00591C89B2ED5C01AB9D5483889942F0D080
:10182C000B46EFE70D4A53809DF804309DF80510E8
:10183C0003EB01239DF8061003EB01439DF8071001
:10184C0003EB0161044B1878FFF7FEFDA3E7034996
:10185C0089880B44A5E700BF2E000020340000202F
:10186C006B4B1B78022B40F0D18070B582B0694B6A
:10187C001B78002B60D0684B1B88F3B9664B1B8818
:10188C00002B49D0654B1C885D88641B00F18B8054
:10189C00A4B20020844240F2AB80002201268EE0EC
:1018AC005F4A53808DF8071001210DF1070000F0FD
:1018BC0017F9594A1388013B1380574B1B88C3B146
:1018CC0000F0FCF8A8B1544B1B88032B0AD9544ADE
:1018DC00518890684B1C9BB2415C92889342DFD13B
:1018EC000023DDE7C3F103034E4AD35C8DF80730C8
:1018FC00DAE7494B1A88002AC0D149494B88013391
:10190C009BB289888B4200D01A46454B5A80FEF711
:10191C00CFFF454B1860B1E7FEF7CAFF424B1B687F
:10192C00C01A3228AED90321404B1878FFF788FD36
:10193C00384B00221A70A5E7394B18885C88001BBD
:10194C0002D480B200220AE09B881844F9E75B1AA3
:10195C009BB233498968CB5C63B1013292B290423D
:10196C0006D9A3189BB22E4989888B42F1D3EEE796
:10197C004FF6FF724FF6FF739A4283D0284988685E
:10198C00631C9BB2005D89888B420AD024494B8032
:10199C00264B18700232204B1A801E4B01221A70F3
:1019AC0070E70023F2E79B881C4471E71B498968A8
:1019BC00C95C1C4B9B5C99420ED1013292B2022A3B
:1019CC000CD883189BB22B449BB2144989888B4248
:1019DC00ECD35B1A9BB2E9E70026EEE72EB14FF68B
:1019EC00FF73984207D102B070BD013080B251E74D
:1019FC004FF6FF70F3E7C0B2FFF728FD054B1B78DD
:101A0C00002BF0D0034B00221A70ECE7704700BF9C
:101A1C00800000202F0000202C000020340000202B
:101A2C00840000200C000020300000202E0000203C
:101A3C000A4B1B7883B90A4B00225A801A80094939
:101A4C00996010219980084B5A801A80074A9A6035
:101A5C009980024B01221A70704700BFAD01002023
:101A6C00900100209C010020B0010020BC0100204E
:101A7C0008B50C4B1B78012B00D008BD0A4B1A88FB
:101A8C005A800A4B1A885A80012209490948FEF7E4
:101A9C00A8FD00B1FEE7084B00221A70014B022290
:101AAC001A70EAE7AD01002090010020B00100207F
:101ABC00AC010020D0010020AE010020074A1388A1
:101ACC0001339BB29288934205D0044A5088C01AC5
:101ADC0018BF012070470023F7E700BFB0010020BA
:101AEC00F8B51A4B1C88002302E0002401339BB28A
:101AFC0099420AD9154DAE68621C92B2C75C375533
:101B0C00AC88A242F1D01446F0E7104B1C80104B6D
:101B1C001B78D3B90D4B5A88944216D01946986845
:101B2C00531C9BB2825C89888B4209D007494B803D
:101B3C0008490A7001220848FEF72FFD10B1FEE794
:101B4C000023F3E7024B01221A70F8BDB00100200C
:101B5C00AE010020CC010020D00100200F4B8342AD
:101B6C0000D070470E4B1B78022BFAD110B5012216
:101B7C000C490A48FEF735FD00B1FEE7094B1C780D
:101B8C00094A118890684B1C9BB24454928893422A
:101B9C0002D0054A138010BD0023FAE7D0010020C3
:101BAC00AD010020AC0100209001002008B5114BC4
:101BBC00834200D008BD104B1B78022BFAD10F4B7F
:101BCC0019885A889142F5D019469868531C9BB2D3
:101BDC00825C89888B420BD008494B80084B1A7069
:101BEC00012208490348FEF7D8FC0028E2D0FEE7A2
:101BFC000023F1E7D0010020AD010020B00100204E
:101C0C00CC010020AC0100200023027812B101337A
:101C1C009BB2FAE718467047002103E00B4B5B5868
:101C2C00435004310A480B4B42189A42F6D30A4AE5
:101C3C0002E0002342F8043B084B9A42F9D3FFF729
:101C4C000DFB00F00FF8FEF7D4FA7047101D0008DA
:101C5C0000000020100000201000002014020020C2
:101C6C00FEE7000070B500260C4D0D4C641BA41053
:101C7C00A64209D100F01AF800260A4D0A4C641B42
:101C8C00A410A64205D170BD55F8043B9847013607
:101C9C00EEE755F8043B98470136F2E7081D0008BB
:101CAC00081D0008081D00080C1D0008F8B500BF31
:101CBC00F8BC08BC9E467047F8B500BFF8BC08BC21
:041CCC009E46704779
:101CD00002030405060708090A0B0C0D0E0F10106D
:101CE00001020000000000000000000001020304E7
:101CF0000607080900000000010203043300000089
:081D0000626B636D64000000DA
:041D0800310100089D
:041D0C000D010008BD
:101D1000010000001000000000A24A04FFFFFF00C5
:0400000508001C25AE
:00000001FF
